:0400000080310A2819
:100008007E1480318331C3237E10090080310C288F
:10001800EF012100ED01EE01EF01603084000130B5
:10002800850010308731F3278031A03084000130FB
:1000380085003F308731F32780312030840002303B
:10004800850040308731F3278031A03084000230AA
:10005800850040308731F32780317E102000342816
:100068000030F92080312921803110218031203061
:1000780021006D02031C3B283D008E183B284620BA
:1000880080313B28203021006D02031C08003D0010
:100098008E18080023003208031D5F284030210015
:1000A800E800A030AC208031B000300803195F2888
:1000B800B201B20AB3013208031D9E1C702833082E
:1000C800A03E8600023087000108A7208031B30ACD
:1000D800330830060319B2012000911E88283F30EA
:1000E80023003102031888283108203E8600023098
:1000F80087009820803181002300B10A3108203E12
:10010800860002308700810123003E08031D9728DE
:1001180031080319972831082100E00020306722B0
:1001280080312300B101D9299D1CA1281D1219086D
:100138002100E00023001D16A42819082100E00072
:100148002100600808002100E00023009A00080050
:10015800EC002300BD012F080319BB282F088600D7
:100168008701010D010D01392100EA00BD28210098
:10017800EA01EB016A086B04031DF62823002F0A25
:10018800860087012100680801020318D12823008E
:100198002F088600413F2100E8002300BD0121000F
:1001A800680823003D020318EA283D0821006C076F
:1001B800E90086000230870023003D08203E8400C5
:1001C8000130850000088100BD0AD32821002030B5
:1001D800E001E1000130E2004030E30002309E21FE
:1001E8002300AF0023003D0808002100E000042997
:1001F800FC309900903027009B00D0309A0008000E
:100208006008003A0319FC28013A03190F29033A38
:1002180003190F290F2908006D08031D08003D0068
:100228008E019201163091009F3097007B3092002A
:10023800210012150B178B173D008E1925298E15D5
:10024800202901302100ED000800210012113D0095
:100258009301900198010E302100E1009930E000EF
:10026800E20160088600610887008101E00A03193D
:10027800E10A0230E20A6202031C352916303D0009
:1002880091009F3097007B3092002100E3016308C2
:1002980009070907203E860000308701C03FC13F9B
:1002A800C23FC33F0C30E30A6302031C4B293D00E5
:1002B8000E1796010E120E133D00901D6A2990111B
:1002C8002200ED01E201E301E4016029013023008D
:1002D800B900BA00B601B701B5012100E30163080E
:1002E800673E86000130870081016308A63E8600CC
:1002F80081016308A03E860081016308A33E860051
:1003080003308101E30A6302031C732928302200A9
:10031800E70016303D0098002000A3015030A200ED
:100328000830A1000430A000A0172300DE0121003E
:10033800ED010800E60060080319A5296608673E74
:10034800A7296608A63E8600013087000108E70055
:100358006708031900346108E4007F306205E5008E
:100368006708023E860087016408C03F6508C13FF0
:10037800670A8600630881006708860040308105A7
:1003880067088600811567088600811760080319C9
:10039800D0296608673ED2296608A63E8600013045
:1003A8008700043081066708080021001211230025
:1003B8002E080319E8292E0886008701010D010D72
:1003C80001392100E800EA292100E801E90168086B
:1003D80069040319F12912150800033023003E06A9
:1003E8000319BE013E08031DFC292100121508004F
:1003F80002303E06031D0E2A21000230E001E00A09
:10040800E101E201E3019E2180312300AE000330C7
:10041800BE00642A3E0B642A41303F02031C162AA0
:100428004030172A3F082100EB002300BF02A0300C
:10043800A90021006B08EA0023003C080319332AAD
:10044800462A23002908860087012B0884000230E9
:10045800850000088100A90AAB0A2100EA032100EF
:100468006A0803194A2A252A2300290886008701D1
:100478002B0884000230850000088100A90AAB0A15
:100488002100EA0321006A08031D382A23003F08D7
:10049800031D582A403021006B06031D552A0230DF
:1004A800562A03302300BE002100A030E001E00AF4
:1004B800E100E2016B08E30002309E212300AE0058
:1004C800210012150800E100121123003E08031D47
:1004D800792A210061082300AB002100600823006D
:1004E800BF00BC01BC0ABE01BE0A210012150800EB
:1004F8002300C201B801B601B701AD012200EA012B
:1005080067088600043087018113E70667088600BC
:1005180004308113E70620006F088600811322004B
:10052800ED01EE01EF01E201E301E401A7228231CE
:1005380003302000E000E101E201E301E401E5010C
:10054800652486314C2E2000500E890C0339031D7A
:100558000800510884000D3004020318080089318E
:100568000435003E820008002200ED170830210003
:10057800ED0008008D31462D8D31B62DDE3022007C
:10058800EB000130EC006D140130EE00ED170800AF
:100598008D31062DEC2A5408DC3E2200EB00013098
:1005A800EC006D14EE00ED1708002200ED17200096
:1005B8005408DC3E8600013087005208810008009C
:1005C8000230E000E101E201E301E401E501652C0C
:1005D8002000520B002B50081F39031D002B22004E
:1005E800ED17033020005106031DFE2A01302300B9
:1005F800B400002B2300B40120005208031D08009A
:1006080050081F39023A031D080054080F3903190E
:10061800080054080F39FB0003307B020318080058
:10062800203021006D06031D08002200ED17200070
:10063800D41B2A2B54080F39A63E860001308700A8
:100648000108E90054080F39A33E352B54080F3927
:10065800673E8600013087000108E90054080F3919
:10066800A03E86000108E80068183C2B69113D2B64
:100678006915D41B432B54080F39A63E462B540842
:100688000F39673E86000130870069088100033012
:100698005106031D692B690886008701811F612B9C
:1006A800D41B5A2B54080F39A33E5D2B54080F391D
:1006B800A03E860001308700811469088600870102
:1006C800011569088600811708000430E9066908E1
:1006D800860087016908811F812B860081138600A7
:1006E80005300117E000E1016908E200E301E401D7
:1006F800E40AE50165248231842B8600870101170D
:1007080004302000E906E8188E2B69088600870166
:10071800811FAC2BD41B942B54080F39A33E972B65
:1007280054080F39A03E86000130870081106908FF
:1007380086003B30870181050530E000E10169084A
:10074800E200E301E401E40AE50165248231B12B0A
:10075800690886003B3087018105200054080F395D
:10076800983EFB000E30FC01FC3D7B08E6007C084F
:10077800E700660886006708870001100800210066
:100788006D03031DD02B3D008E1AD02B900112143F
:10079800121602302100ED003D001019121DD72B52
:1007A8001011552582318E1CDC2B200012110800F7
:1007B8001018121CE62B6925823112150430ED0041
:1007C8003D001010101A121EED2B462582313D00F7
:1007D8001012101F072C121FFC2B73302000E00092
:1007E800E101E201E301E401E40AE5016524823163
:1007F8003D00101323003B08031DBB033B08031DEA
:10080800072C832482313D00901A921E0D2C292535
:1008180082319018921C1E2CFF302000E0007F309F
:10082800E100E201E301E401E40AE5016524823123
:100838003D009301043021006D020318262C20008E
:10084800121108003D00921D622C2000EE015F2C61
:100858000F082100EF006F0C2000ED00ED0C6D0C6F
:100868000F392300C0003D00901121006F19402C62
:1008780023004008A33E432C23004008A03E8600E6
:100888000130870081064008031D4D2CD124823198
:10089800592C72302000E000EF30E101E200003016
:1008A800E300E401E5016524823120000430EE0A0A
:1008B8006E020318622C3D0090192C2C2000121196
:1008C80008006108003A0319702C7F3A03197D2C3F
:1008D800822C8F31332FFF2D6008FF3E031C080048
:1008E8008400753004020318080088310435003E7E
:1008F80082006008FF3A0319822C822C080023002A
:100908003908031D08000130B9003A08031D080022
:100918000130BA00023022006A06031D9F2C670AC4
:1009280086008701810167088600483081006708D2
:100938008600811708006A0B08002300AD0121001A
:100948006E0A86000830870181005030F000F101FE
:100958006E08023E86007008C03F7108C13F6E08ED
:100968008600043081006E0886000130811723005C
:10097800AD0020006F0A8600083081005030F0007A
:10098800F1016F08023E86007008C03F7108C13F40
:100998006F0886008030810008002D30BB002100E0
:1009A8006F08FD39031D202D6F363F3909070907E8
:1009B800203EEE002000EF000430EF0621006E0814
:1009C80086008701010C890C0F390D3A031D1F2D74
:1009D8002000EC016C08503E8600870121006E085B
:1009E800023E84008501003F2000EA00013FEB0041
:1009F8006A0884006B0885000008810021006E08E1
:100A0800023E86000130810741310318810A200027
:100A18000830EC0A6C02031CEE2C5030EA00EB01A3
:100A280021006E08023E8600870120006A08C03F48
:100A38006B08C13F7C2AD92DFD306F052000EA00E4
:100A4800043A031D08008631F32E181C442D21009A
:100A58006E088600803087010106031D422D2200A2
:100A68006708860084300106031D422D21006E08A8
:100A780086000C3081006E08860081173D00181032
:100A880090120800121510128E1401302300B500C0
:100A980075302000E000E101E201E301E401E50135
:100AA800652C2300B50174302000E0000030E1011E
:100AB800E201E301E401E501652482313D008E1085
:100AC8001211101D08001011652D210012113D0092
:100AD8009301900198010E30F1009930F000F20175
:100AE80070088600710887008101F00A0319F10A6D
:100AF8000230F20A7202031C742D163091009F30E6
:100B080097007B309200F301730809070907203E1C
:100B1800860000308701C03FC13FC23FC33F0C3051
:100B2800F30A7302031C882D0E1796010E120E137A
:100B38003D00901DA62D90112200ED01E201E30178
:100B4800E4019C2D01302300B900BA00B601B701B9
:100B5800B501F3017308673E860001308700810103
:100B68007308A63E860081017308A03E86008101B5
:100B78007308A33E860003308101F30A7302031C45
:100B8800AE2D28302200E70016303D0098002000E6
:100B9800A3015030A2000830A1000430A000A01723
:100BA8002300DE012100ED010800023022006A0660
:100BB800031DE02D8E312F2EEA0123002D08031D81
:100BC800FD2D20006F0A8600083087018100503013
:100BD800E800E9016F08023E86006808C03F69081E
:100BE800C13F6F0886000C3081006F0886008117AE
:100BF8000800AD01080050081F39013A031D08001C
:100C0800500E890C0339013A031D080054080319D2
:100C1800412E5403031D0800412ECD302200EB0065
:100C28000130EC000830EE00EF016D14ED170800FC
:100C3800CD302200EB000130EC00ED17080057081A
:100C48002200E400200056082200E300C330E00040
:100C58000E30E600BE30E500E2170800D53022006D
:100C6800EB000130EC000730EE00EF01C130ED0081
:100C7800080052082200ED170800510884002330AC
:100C880004020318080087310435AD3E82000800CD
:100C98003D000E122200ED1B7E2EE21F5E2E02305A
:100CA800EA0023003708031D5A2EAD262300BA0197
:100CB800B901080020006F0A86000830870181000A
:100CC8005030F300F4016F08023E86007308C03FFD
:100CD8007408C13F6F0886000C3081006F088600D9
:100CE80081172200670886000430810067088600A3
:100CF800811708002000D01F922E01302200EA0040
:100D080023003608031D8A2EAD2686312300BA013A
:100D1800B9013808031D08008431832C02302200F1
:100D2800EA0020006F0A86000830870181005030F1
:100D3800F300F4016F08023E86007308C03F740890
:100D4800C13F6F088600043081006F088600811754
:100D58008A2EB601B701023022006A06031DCC2E86
:100D680020006F0A86000830870181005830F100A2
:100D7800F2016F08023E86007108C03F7208C13F49
:100D88006F088600483081006F08860081170800C8
:100D98006F0820005702031DD52E22006E08200080
:100DA80056020318DE2E57082200EF0020005608CE
:100DB8002200EE005C275830F100F201220067089B
:100DC800023E860087017108C03F7208C13F67086C
:100DD80086004830810067088600811708002200D5
:100DE8006708860000308701011B0130FD000430D0
:100DF800E706083021006D06031D0F2F200052085A
:100E08007F393D009600160803190C2F10300D2F5E
:100E180004302100ED0022006A0B482F58302000D2
:100E2800E400E50122006708023E860087012000F1
:100E38006408C03F6508C13F5C2786310230230043
:100E48004206031D312F22006708860004308701FF
:100E5800810067088600811708007D08031D3E2F62
:100E680022006708860048308701810067088600ED
:100E78008117080022006708860008308701810072
:100E88006708860081170800E21F5A2F6508660464
:100E98000319582F0530603E860001308700413F16
:100EA8008A00403F0A0087312200E213EA01080065
:100EB8000830F000003022006F02083003196E027B
:100EC8000318722F6E08F00023004208031D6E2FCE
:100ED8000130712F420B722F0230C20070082200BD
:100EE800EE02031CEF03670A860087017008810081
:100EF80058302300C10022006D1C942FA92F230015
:100F080041088600870122006B0884006C08850070
:100F180000088100EB0A0319EC0A2300C10AF00358
:100F2800700803190800832F2300410886008701F1
:100F380022006B0884006C08850000088100EB0A19
:100F48000319EC0A2300C10AF0037008031908000A
:100F5800982F8631112E86311C2E86314B2E8631E4
:100F68004B2E86314B2E86314B2E86314B2E8631B9
:100F78004B2E86314B2E86314B2E86314B2E8631A9
:100F88004B2E86314B2E86314B2E86314B2E863199
:100F98004B2E86314B2E86314B2E86314B2E863189
:100FA8004B2E86314B2E86314B2E86314B2E863179
:100FB8004B2E86314B2E86314B2E86314B2E863169
:100FC8004B2E86314B2E86314B2E86314B2E863159
:100FD8004B2E8631232E8631322E86313D2E6400EB
:0A0FE80080010131890BF42F003461
:1010000084316D2C8431822C84316F2C8431822C7C
:101010008431822C8431822C8431822C8431822C44
:101020008431822C8431822C8431822C8431822C34
:101030008431822C8431822C8431822C8431822C24
:101040008431822C8431822C8431822C8431822C14
:101050008431822C8431822C8431822C8431822C04
:101060008431822C8431822C8431822C8431822CF4
:101070008431822C8431822C8431822C8431822CE4
:101080008431822C8431822C8431822C8431822CD4
:101090008431822C8431822C8431822C8431822CC4
:1010A0008431822C8431822C8431822C8431822CB4
:1010B0008431822C8431822C8431822C8431822CA4
:1010C0008431822C8431822C8431822C8431822C94
:1010D0008431822C8431822C8431822C8431822C84
:1010E0008431822C8431822C8431822C8431822C74
:1010F0008431822C8431822C8431822C8431822C64
:101100008431822C8431822C8431822C8431822C53
:101110008431822C8431822C8431822C8431822C43
:101120008431822C8431822C8431822C8431822C33
:101130008431822C8431822C8431822C8431822C23
:101140008431822C8431822C8431822C8431822C13
:101150008431822C8431822C8431822C8431822C03
:101160008431822C8431822C8431822C8431822CF3
:101170008431822C8431822C8431822C8431822CE3
:101180008431822C8431822C8431822C8431822CD3
:101190008431822C8431822C8431822C8431822CC3
:1011A0008431822C8431822C8431822C8431822CB3
:1011B0008431822C8431822C8431822C8431822CA3
:1011C0008431822C8431822C8431822C8431822C93
:0411D0008431822CB8
:101200008231CC2A8231CE2A8231B72A8231CE2A4B
:101210008231B72A8231B82A8231BE2A8231E42A49
:101220008231C22A8231C02A8231CF2A8231D92A20
:041230008231B72A26
:101A0C002000D801D901312D2200ED172300340B11
:101A1C003C2D2000D8143C2D2200ED173C2D22002B
:101A2C00ED172000D41B1E2D54080F39A63E212D76
:101A3C0054080F39673E8600013087000108F0001A
:101A4C0086008701811F3C2D70088600011D3C2DEE
:101A5C000130D8003C2D50081F3903190A2D013ACA
:101A6C000319122D033A0319152D3C2D2200ED1FDD
:101A7C0008005830EB00EC016D140230EE00080049
:101A8C00803020005006031D0800C0302200ED00FD
:101A9C00A92D71302200EB009030EC001230EE00DA
:101AAC00EF0108005208031D842D5208F000083085
:101ABC00F101F035F10D700784009030713D850017
:101ACC00003F2200EB00013FEC006C08F1006B08BA
:101ADC00F000023E840071080318710A85000008AA
:101AEC00EE006C08F1006B08F000033E84007108F6
:101AFC000318710A85000008EF0008002200ED01B0
:101B0C000800043052020318A32D5208F0000030D4
:101B1C00F101F035F10D700784009030713D8500B6
:101B2C00003F2200EB00013FEC006B0884006C08C6
:101B3C0085000008EE00EF0108002200ED0108000E
:101B4C002200ED01080020005308013A03194F2D23
:101B5C00033A0319582D013A0319872DA62D0800B5
:101B6C002200ED170E302000E7009930E600E80166
:101B7C0066088600670887008101E60A0319E70AF0
:101B8C000230E80A6802031CBE2D2030F000303011
:101B9C00F101F201F301F400F50118268D313D003D
:101BAC000E172000E9016908A03E8600013087006D
:101BBC0081016908A33E860003308101E90A6902AC
:101BCC00031CD92DDC30F0000130F1000230F201A1
:101BDC00F301F400F50118268D313D000E13283069
:101BEC002200E70020302100EE002000EF00520818
:101BFC002300DE005E08031D072E10302100ED00CF
:101C0C0008002000DE30E001E00AE101E2000130D2
:101C1C00E300E401E40AE50184316524203021006D
:101C2C00ED0008007008F6007108F7000130F402AE
:101C3C000030F53B740F252E750A03190800760841
:101C4C0086007708870072088100F60A0319F70AE4
:101C5C001C2E21006E0886008701413F2000E70002
:101C6C00E400E501650822006402031D412E2000FA
:101C7C006408220063020318462E63082000E70064
:101C8C00200067082200E302031CE4032000E601A5
:101C9C00670866020318632E220060088600013074
:101CAC00870020006608583E8400850100088100EA
:101CBC002200E00A2000E60A4E2E2200630864048B
:101CCC000319902E20006F0A8600083087018100CE
:101CDC005830E400E5016F08023E86006408C03FFE
:101CEC006508C13F21006E088600011B862E20006E
:101CFC006F088600483081006F0886008117080045
:101D0C0020006F0886000830870181006F0886006C
:101D1C008117080020006F0A8600083087018100B7
:101D2C005030E400E5016F08023E86006408C03FB5
:101D3C006508C13F6F088600043081006F0886007B
:101D4C0081172200650866040319B62E0530603E23
:101D5C00860001308700413F8A00403F0A008E31E7
:101D6C002200E21323003808031D08008431832C61
:101D7C0023004608D8004508D7004408D60043087D
:101D8C00D50020008E1123005808F3005708F200EC
:101D9C005608F1005508F0003D30F701F600093007
:101DAC00F500F401F4268E3173082000E30072086C
:101DBC00E2007108E1007008E000FF30E007E13D4F
:101DCC00E23DE33D600823009B009C01200061087C
:101DDC0023009C00512720008E150800F801F90102
:101DEC00FA01FB01730872047104700403192A2FA1
:101DFC00FC01FC0AF31B072FF035F10DF20DF30D6E
:101E0C00FF2EF835F90DFA0DFB0D73087702031D43
:101E1C00192F72087602031D192F71087502031D04
:101E2C00192F70087402031C242F7008F402710817
:101E3C00F53B7208F63B7308F73B7814F336F20C5B
:101E4C00F10CF00CFC0B072F7B08F3007A08F20066
:101E5C007908F1007808F00008005E278E31083010
:101E6C00D901DB002530DA01D801D701D60080304A
:101E7C00D50051278E31FA017A08203E86000230B7
:101E8C00870040308101FA0A7A02031C422F23009A
:101E9C00B101B001080021008E118E160E122430F3
:101EAC0023009E0090309D0008309F001908080008
:101EBC0023004B30D801D701D6000830D501D90109
:101ECC00DA01DB001A30BD01F400013081278E31BC
:101EDC001E30F400023081278E312030F001F100E9
:101EEC000130F2004030F3000230C5272300AF0070
:101EFC00AE01BE010800F900741D872FF0019E276A
:101F0C008E31F41C8D2FF001F00A79089E27790888
:101F1C00983EF5000E30F601F63D7508F700760890
:101F2C00F80077088600780887007408810008009C
:101F3C00F2002030F3007008F100F1357208090747
:101F4C000907710709070907F3077308860087015A
:101F5C0081137008031DB52F7208A63EB72F7208A7
:101F6C00673E860001308700730881007308860085
:101F7C00870101137308043E860001170800F60060
:101F8C0070080319CC2F7608673ECE2F7608A63E34
:101F9C008600013087000108F70077080319003428
:101FAC007108F4007F307205F5007708023E860058
:101FBC0087017408C03F7508C13F770A8600730813
:101FCC0081007708860040308105770886008115EE
:101FDC0077088600811770080319F72F7608673E7B
:101FEC00F92F7608A63E8600013087000430810662
:101FFC0077080800A33490344D34903483349034F3
:10200C00933490340A349034093402344334003419
:10201C000234013400348034FA340934043400348A
:10202C0000340134023402340134003405342434D5
:10203C0000341034013404342434023402340534B2
:10204C00243406340034013405342434013400348F
:10205C000134073405348134033408340034023439
:10206C00093404340134003402340A3400340034AA
:10207C000034073405340234023440340034003464
:10208C0007340534823402344034003400342434B0
:10209C000334503400346F340034733400347434EB
:1020AC0000342034003454340034653400346E343D
:1020BC0000346534003462340034723400346134DA
:1020CC00003473340034203400344C340034613424
:1020DC0000346234003412340134003402340234DB
:1020EC00003400340834D83404343134F33400343C
:1020FC0001340134023403340134103403345034C9
:10210C000034543400344C3400342D3400346934ED
:10211C0000346E3400346F340034103403345034D3
:10212C000034543400344C3400342D340034303406
:10213C000034303400343034003404340334093483
:02214C00043459
:020000040001F9
:04000E00A4CFEFDFAD
:00000001FF
